{
  "contractName": "ConvertShop",
  "abi": [
    {
      "constant": false,
      "inputs": [],
      "name": "getTokens",
      "outputs": [
        {
          "name": "",
          "type": "uint256"
        }
      ],
      "payable": false,
      "stateMutability": "nonpayable",
      "type": "function"
    }
  ],
  "bytecode": "0x6080604052348015600f57600080fd5b5060998061001e6000396000f300608060405260043610603e5763ffffffff7c0100000000000000000000000000000000000000000000000000000000600035041663aa6ca80881146043575b600080fd5b348015604e57600080fd5b5060556067565b60408051918252519081900360200190f35b600054905600a165627a7a72305820823e85d17cce5b8b5102550ac7e73a521e9b21d9d6bafc32941472e49fae60670029",
  "source": "pragma solidity ^0.4.4;\n\ncontract ConvertShop{\n    uint internal tokensAmount;\n    mapping (address => uint) userTokenBalances;\n\n    function convert(uint amount)internal returns (bool)\n    {\n        tokensAmount = amount + tokensAmount;\n        return true;\n    }\n\n    function getCurrTokensAddr(address addr)internal returns (uint)\n    {\n        return userTokenBalances[addr];\n    }\n\n    function getTokens() returns (uint)\n    {\n        return tokensAmount;\n    }\n\n    function clearTokenAmount()internal returns (bool)\n    {\n        tokensAmount = 0;\n        return true;\n    }\n\n    function sendTokensTo(address addr)internal returns (bool)\n    {\n        userTokenBalances[addr]=tokensAmount;\n        tokensAmount =0;\n        return true;\n    }\n\n}",
  "sourcePath": "/root/IdeaProjects/Project2/contracts/ConvertShop.sol",
  "compiler": {
    "name": "solc",
    "version": "0.4.23+commit.124ca40d.Emscripten.clang"
  },
  "schemaVersion": "2.0.0",
  "updatedAt": "2018-05-21T17:19:48.591Z"
}