{
  "contractName": "Remittance",
  "abi": [
    {
      "constant": false,
      "inputs": [],
      "name": "destroy",
      "outputs": [],
      "payable": false,
      "stateMutability": "nonpayable",
      "type": "function"
    },
    {
      "constant": true,
      "inputs": [],
      "name": "owner",
      "outputs": [
        {
          "name": "",
          "type": "address"
        }
      ],
      "payable": false,
      "stateMutability": "view",
      "type": "function"
    },
    {
      "constant": false,
      "inputs": [],
      "name": "getTokens",
      "outputs": [
        {
          "name": "",
          "type": "uint256"
        }
      ],
      "payable": false,
      "stateMutability": "nonpayable",
      "type": "function"
    },
    {
      "inputs": [
        {
          "name": "daysAvailable",
          "type": "uint256"
        }
      ],
      "payable": false,
      "stateMutability": "nonpayable",
      "type": "constructor"
    },
    {
      "constant": false,
      "inputs": [],
      "name": "getCurrentSubval",
      "outputs": [
        {
          "name": "",
          "type": "uint256"
        }
      ],
      "payable": false,
      "stateMutability": "nonpayable",
      "type": "function"
    },
    {
      "constant": false,
      "inputs": [],
      "name": "payMoney",
      "outputs": [
        {
          "name": "success",
          "type": "bool"
        }
      ],
      "payable": true,
      "stateMutability": "payable",
      "type": "function"
    },
    {
      "constant": false,
      "inputs": [
        {
          "name": "firstPassw",
          "type": "string"
        },
        {
          "name": "secondPassw",
          "type": "string"
        }
      ],
      "name": "reckoning",
      "outputs": [
        {
          "name": "",
          "type": "bool"
        }
      ],
      "payable": false,
      "stateMutability": "nonpayable",
      "type": "function"
    },
    {
      "constant": false,
      "inputs": [],
      "name": "getTokensBalance",
      "outputs": [
        {
          "name": "",
          "type": "uint256"
        }
      ],
      "payable": false,
      "stateMutability": "nonpayable",
      "type": "function"
    },
    {
      "constant": false,
      "inputs": [],
      "name": "cashBack",
      "outputs": [
        {
          "name": "success",
          "type": "bool"
        }
      ],
      "payable": true,
      "stateMutability": "payable",
      "type": "function"
    }
  ],
  "bytecode": "0x608060408190527f07502f50eda596b59f23f9ff15f89357d7dbb7e66706bb20f602eca285b7674c6006557f517765727479320000000000000000000000000000000000000000000000000090527f7ead10b3ca802ae71f04bad666eb19b53cb6e6f44add3fb7bb5b1e3f0f015a1f60075534801561007d57600080fd5b506040516020806104f9833981016040525160008054600160a060020a033316600160a060020a0319918216811790925542600581905560038054909216909217905501600455610426806100d36000396000f30060806040526004361061008d5763ffffffff7c010000000000000000000000000000000000000000000000000000000060003504166302f4ec61811461009257806304b3c391146100ae5780631dc1c5e3146100d557806321134270146100dd5780638181847c1461017457806383197ef0146101895780638da5cb5b146101a0578063aa6ca808146101d1575b600080fd5b61009a6101e6565b604080519115158252519081900360200190f35b3480156100ba57600080fd5b506100c3610243565b60408051918252519081900360200190f35b61009a610252565b3480156100e957600080fd5b506040805160206004803580820135601f810184900484028501840190955284845261009a94369492936024939284019190819084018382808284375050604080516020601f89358b018035918201839004830284018301909452808352979a9998810197919650918201945092508291508401838280828437509497506102699650505050505050565b34801561018057600080fd5b506100c3610358565b34801561019557600080fd5b5061019e610363565b005b3480156101ac57600080fd5b506101b561038c565b60408051600160a060020a039092168252519081900360200190f35b3480156101dd57600080fd5b506100c361039b565b6000426004541015156101f857600080fd5b604051600160a060020a0333811691309091163180156108fc02916000818181858888f19350505050158015610232573d6000803e3d6000fd5b5061023b6103a1565b506001905090565b600061024d61039b565b905090565b600034811061026057600080fd5b61023b346103ab565b6000826040518082805190602001908083835b6020831061029b5780518252601f19909201916020918201910161027c565b5181516020939093036101000a6000190180199091169216919091179052604051920182900390912060065414925050811590506103365750816040518082805190602001908083835b602083106103045780518252601f1990920191602091820191016102e5565b5181516020939093036101000a6000190180199091169216919091179052604051920182900390912060075414925050505b1561034e57610344336103b8565b5060019050610352565b5060005b92915050565b600061024d336103df565b60005433600160a060020a0390811691161461037e57600080fd5b600054600160a060020a0316ff5b600054600160a060020a031681565b60015490565b6000600190815590565b6001805482018155919050565b60018054600160a060020a0383166000908152600260205260408120919091558155919050565b600160a060020a0316600090815260026020526040902054905600a165627a7a7230582023877f22bec06e3f7ed8dfd84d180adf39630f55e79adb39ea73ef7464b5c7ec0029",
  "source": "pragma solidity ^0.4.4;\nimport \"./Ownable.sol\";\nimport \"./ConvertShop.sol\";\nimport \"./Destroyable.sol\";\n\ncontract Remittance  is Ownable, ConvertShop,Destroyable{\n\n    address private owner;\n    uint private finalDate;\n    uint256 private currDate;\n    bytes32 passwd1 = keccak256('Qwerty1');\n    bytes32 passwd2 = keccak256('Qwerty2');\n\n    function Remittance(uint daysAvailable)\n    public\n    {\n        currDate = now;\n        owner = msg.sender;\n        finalDate = currDate + daysAvailable;\n    }\n\n    modifier checkFinalDate()\n    {\n        require(finalDate < now);\n        _;\n    }\n\n    function getCurrentSubval() public returns (uint){\n        return getTokens();\n    }\n\n    function payMoney()\n    public\n    payable\n    returns (bool success){\n        require(msg.value > 0);\n        convert(msg.value);\n        return true;\n    }\n\n    function reckoning (string firstPassw, string secondPassw) public returns(bool){\n        if (passwd1 == keccak256(firstPassw) && passwd2 == keccak256(secondPassw)){\n            sendTokensTo(msg.sender);\n            return true;\n        }else {\n            return false;\n        }\n    }\n\n    function getTokensBalance() returns (uint){\n        return getCurrTokensAddr(msg.sender);\n    }\n\n    function cashBack()  checkFinalDate  public   payable   returns(bool success)\n    {\n        msg.sender.transfer(this.balance);\n        clearTokenAmount();\n        return true;\n    }\n}",
  "sourcePath": "/root/IdeaProjects/Project2/contracts/Remittance.sol",
  "compiler": {
    "name": "solc",
    "version": "0.4.23+commit.124ca40d.Emscripten.clang"
  },
  "schemaVersion": "2.0.0",
  "updatedAt": "2018-05-21T17:19:48.591Z"
}